:100000000C9461000C947E000C947E000C947E0095
:100010000C947E000C947E000C947E000C947E0068
:100020000C947E000C947E000C947E000C947E0058
:100030000C947E000C947E000C947E000C947E0048
:100040000C9416020C947E000C947E000C947E009E
:100050000C947E000C947E000C947E000C947E0028
:100060000C947E000C947E0000000007000201004A
:100070000003040600000000000000000102040864
:100080001020408001020408102001020408102002
:10009000040404040404040402020202020203032E
:1000A00003030303000000002300260029000000D2
:1000B0000000250028002B0000000000240027007D
:1000C0002A0011241FBECFEFD8E0DEBFCDBF11E064
:1000D000A0E0B1E0EEE7F7E002C005900D92A63097
:1000E000B107D9F711E0A6E0B1E001C01D92A73237
:1000F000B107E1F70E94AD030C94BA030C94000021
:1001000060E084E00E94150360E085E00E94150332
:1001100061E082E00E94150361E083E00E94150324
:1001200061E089E00E94150360E089E00C944D03D2
:1001300085E00E948403AA2797FDA095BA2F80939B
:100140001A0190931B01A0931C01B0931D0161E063
:1001500070E080E090E00E948A0284E00E948403C4
:10016000AA2797FDA095BA2F8093120190931301AF
:10017000A0931401B09315018EE00E949401AA2768
:1001800097FDA095BA2F8093060190930701A09345
:100190000801B093090140911A0150911B0160912F
:1001A0001C0170911D018091160190911701A09181
:1001B0001801B0911901481759076A077B0719F10F
:1001C00081E090E0A0E0B0E080931A0190931B01E1
:1001D000A0931C01B0931D0140910A0150910B01A5
:1001E00060910C0170910D01452B462B472B19F0A6
:1001F00080E090E0DC0180930A0190930B01A093D2
:100200000C01B0930D0140911201509113016091C6
:1002100014017091150180910E0190910F01A09130
:100220001001B0911101481759076A077B0719F1AE
:1002300081E090E0A0E0B0E0809312019093130180
:10024000A0931401B0931501409100015091010158
:100250006091020170910301452B462B472B19F049
:1002600080E090E0DC018093000190930101A09375
:100270000201B09303018091000190910101A091CE
:100280000201B09103010197A105B10551F461E0AC
:1002900082E00E944D0360E083E00E944D0361E034
:1002A00009C060E082E00E944D0361E083E00E94AB
:1002B0004D0360E08DE00E944D0380910A01909112
:1002C0000B01A0910C01B0910D010197A105B105A1
:1002D00029F4609106017091070102C060E070E0AE
:1002E00089E00E94B5018091160190911701A091BB
:1002F0001801B091190180931A0190931B01A093EA
:100300001C01B0931D0180910E0190910F01A091ED
:100310001001B09111018093120190931301A093E9
:100320001401B093150108958E3008F08E50877037
:100330002091040140E4249F90011124822B80939A
:100340007C0080917A00806480937A0080917A00AA
:1003500086FDFCCF2091780030917900932F80E0CA
:10036000AC01422B9A01C90108951F93CF93DF93EB
:10037000182FEB0161E00E941503209711F460E053
:1003800004C0CF3FD10539F461E0812FDF91CF91D7
:100390001F910C944D03E12FF0E0E859FF4FE491D9
:1003A000E330B9F028F4E13051F0E230B1F50CC09F
:1003B000E63019F1E73049F1E43079F514C084B53D
:1003C000806884BDC7BD2EC084B5806284BDC8BDB1
:1003D00029C080918000806880938000D09389003C
:1003E000C09388001FC0809180008062809380004D
:1003F000D0938B00C0938A0015C08091B0008068B4
:100400008093B000C093B3000DC08091B0008062B3
:100410008093B000C093B40005C0C038D1050CF083
:10042000B3CFADCFDF91CF911F9108951F920F925F
:100430000FB60F9211242F933F938F939F93AF93F7
:10044000BF9380911E0190911F01A0912001B09156
:10045000210130912601232F2D5F2D3720F40196A5
:10046000A11DB11D05C0232F2A570296A11DB11D44
:100470002093260180931E0190931F01A0932001D9
:10048000B09321018091220190912301A091240138
:10049000B09125010196A11DB11D80932201909379
:1004A0002301A0932401B0932501BF91AF919F91A7
:1004B0008F913F912F910F900FBE0F901F90189525
:1004C0000F931F939FB7F89400912201109123017D
:1004D000209124013091250186B5A89B06C08F3F4D
:1004E00021F00F5F1F4F2F4F3F4F9FBF322F212F04
:1004F000102F0027080F111D211D311D42E0000F94
:10050000111F221F331F4A95D1F7B801C9011F914E
:100510000F910895CF92DF92EF92FF92CF93DF93E6
:100520006B017C010E946002EB010EC00E94600220
:100530006C1B7D0B683E734038F081E0C81AD1080F
:10054000E108F108C851DC4FC114D104E104F10401
:1005500069F7DF91CF91FF90EF90DF90CF900895F2
:10056000789484B5826084BD84B5816084BD85B58E
:10057000826085BD85B5816085BDEEE6F0E0808155
:1005800081608083E1E8F0E0108280818260808376
:10059000808181608083E0E8F0E0808181608083F9
:1005A000E1EBF0E0808184608083E0EBF0E080812B
:1005B00081608083EAE7F0E08081846080838081CD
:1005C0008260808380818160808380818068808375
:1005D0001092C1000895833069F028F48130A1F0B1
:1005E000823011F514C08630B1F08730C1F084300C
:1005F000D9F404C0809180008F7703C0809180007F
:100600008F7D80938000089584B58F7702C084B574
:100610008F7D84BD08958091B0008F7703C0809155
:10062000B0008F7D8093B0000895CF93DF9390E06A
:10063000FC01E458FF4F4491FC01E057FF4F8491C7
:10064000882341F190E0880F991FFC01E854FF4F87
:1006500025913491D90182559F4FFC018591949148
:10066000C82FD92F9FB7F8948C91611106C040957F
:1006700084238C938881842308C0623041F4242F22
:10068000209582238C938881842B888302C0842BBD
:100690008C939FBFDF91CF9108950F931F93CF93BA
:1006A000DF931F92CDB7DEB7282F30E0F901E8596C
:1006B000FF4F8491F901E458FF4F1491F901E0577D
:1006C000FF4F04910023D1F0882321F069830E9419
:1006D000EB026981E02FF0E0EE0FFF1FE255FF4FC4
:1006E00085919491DC019FB7F8948C91611103C0BE
:1006F0001095812301C0812B8C939FBF0F90DF91B8
:10070000CF911F910F910895CF93DF93282F30E061
:10071000F901E859FF4F8491F901E458FF4FD49152
:10072000F901E057FF4FC491CC2389F081110E9459
:10073000EB02EC2FF0E0EE0FFF1FEC55FF4F859121
:100740009491DC018C918D2321E030E011F420E0C4
:1007500030E0C901DF91CF9108950E94B0020E945C
:100760008000C0E0D0E00E9498002097E1F30E9452
:0E0770000000F9CFF8940C94BD03F894FFCF6D
:06077E0001000000010073
:00000001FF
