:100000000C9462000C948A000C948A000C948A0070
:100010000C948A000C948A000C948A000C948A0038
:100020000C948A000C948A000C948A000C948A0028
:100030000C948A000C948A000C948A000C948A0018
:100040000C945E040C948A000C948A000C948A0030
:100050000C948A000C948A000C948A000C948A00F8
:100060000C948A000C948A00000000070002010032
:100070000003040600000000000000000102040864
:100080001020408001020408102001020408102002
:10009000040404040404040402020202020203032E
:1000A00003030303000000002300260029000000D2
:1000B0000000250028002B0000000000240027007D
:1000C0002A004C0111241FBECFEFD8E0DEBFCDBF08
:1000D00011E0A0E0B1E0E6E6FBE002C005900D9281
:1000E000AA39B107D9F711E0AAE9B1E001C01D9220
:1000F000A43CB107E1F710E0C4ECD0E004C02297C3
:10010000FE010E94AD05C23CD107C9F70E94210241
:100110000C944B050C94000020E042E060E186EA7C
:1001200091E00E94840360E086E00E94890161E022
:100130008DE00E9489016CE071E086EA91E00E9406
:10014000660241E060E086EA91E00E944D0368E1CA
:1001500071E086EA91E00E94660261E08DE00C9415
:10016000C10186E00E94F801AA2797FDA095BA2F49
:100170008093A2019093A301A093A401B093A50141
:1001800040919E0150919F016091A0017091A10149
:1001900084179507A607B70709F46DC0892B8A2B2A
:1001A0008B2B09F068C068E070E080E090E00E946E
:1001B000680260939A0170939B0180939C019093D5
:1001C0009D0186EA91E00E947D0340E060E086EABE
:1001D00091E00E944D036BE271E086EA91E00E949B
:1001E000660241E060E086EA91E00E944D03809162
:1001F0009A0190919B01A0919C01B0919D01833047
:100200009105A105B10529F15CF481309105A105A5
:10021000B105C9F0DCF4892B8A2B8B2B89F02BC01C
:1002200085309105A105B105D1F0B4F08630910576
:10023000A105B105B9F00797A105B105E1F415C015
:100240006AE371E014C06DE371E011C061E571E033
:100250000EC06CE571E00BC069E671E008C062E7B2
:1002600071E005C061E871E002C06EE871E086EA05
:1002700091E00E9466028091A2019091A301A09159
:10028000A401B091A50180939E0190939F01A0933A
:10029000A001B093A1010895CF92EF920F9382E055
:1002A000C82E93E0E92E04E025E04BE06CE086EAFE
:1002B00091E00E9438040F91EF90CF900895833021
:1002C00069F028F48130A1F0823011F514C0863035
:1002D000B1F08730C1F08430D9F404C0809180003F
:1002E0008F7703C0809180008F7D80938000089578
:1002F00084B58F7702C084B58F7D84BD08958091C9
:10030000B0008F7703C08091B0008F7D8093B000E4
:100310000895CF93DF9390E0FC01E458FF4F4491A0
:10032000FC01E057FF4F8491882341F190E0880F52
:10033000991FFC01E854FF4F25913491D901825552
:100340009F4FFC0185919491C82FD92F9FB7F894A6
:100350008C91611106C0409584238C9388818423FD
:1003600008C0623041F4242F209582238C93888129
:10037000842B888302C0842B8C939FBFDF91CF9105
:1003800008950F931F93CF93DF931F92CDB7DEB7DE
:10039000282F30E0F901E859FF4F8491F901E45822
:1003A000FF4F1491F901E057FF4F04910023D1F062
:1003B000882321F069830E945F016981E02FF0E0CA
:1003C000EE0FFF1FE255FF4F85919491DC019FB71F
:1003D000F8948C91611103C01095812301C0812B89
:1003E0008C939FBF0F90DF91CF911F910F91089534
:1003F000CF93DF93282F30E0F901E859FF4F849124
:10040000F901E458FF4FD491F901E057FF4FC4912F
:10041000CC2389F081110E945F01EC2FF0E0EE0FF8
:10042000FF1FEC55FF4F85919491DC018C918D233A
:1004300021E030E011F420E030E0C901DF91CF91FC
:1004400008950E94B2040E948C00C0E0D0E00E9497
:10045000B1002097E1F30E940000F9CFCF92DF9224
:10046000EF92FF920F931F93CF93DF936C01EB01F9
:100470007A01E60EF71E00E010E00BC06991D6018C
:10048000ED91FC910190F081E02DC6010995080FD6
:10049000191FCE15DF0591F7C801DF91CF911F918C
:1004A0000F91FF90EF90DF90CF900895DB010D90BA
:1004B0000020E9F7AD0141505109461B570BDC0103
:1004C000ED91FC910280F381E02D09940C94560289
:1004D0000F931F93CF93DF9300D000D0CDB7DEB73B
:1004E0009B01AC01611571058105910579F0698366
:1004F0003A834B835C830E943D0529813A814B817D
:100500005C810E9483058B019C0103C000E010E028
:100510009801B801C9010F900F900F900F90DF91D3
:10052000CF911F910F910895CF93DF93EC0160E07D
:100530008E810E94C10181E090E00E94A80461E0E8
:100540008E810E94C10181E090E00E94A80460E0D9
:100550008E810E94C10184E690E0DF91CF910C94DE
:10056000A804CF92DF92EF92FF920F931F93CF9345
:10057000DF937C01C0E0D0E0C62ED12C87010C0FA8
:100580001D1F61E0F80187810E948901B6010C2ED0
:1005900002C0759567950A94E2F761707727F801B4
:1005A00087810E94C1012196C430D10539F7C70166
:1005B000DF91CF911F910F91FF90EF90DF90CF903F
:1005C0000C949402CF92DF92EF92FF920F931F93BD
:1005D000CF93DF937C01C0E0D0E0C62ED12C870101
:1005E0000C0F1D1F61E0F80187810E948901B6018F
:1005F0000C2E02C0759567950A94E2F76170772713
:10060000F80187810E94C1012196C830D10539F7D0
:10061000C701DF91CF911F910F91FF90EF90DF9075
:10062000CF900C9494021F93CF93DF93EC01162F7D
:10063000642F8C810E94C1018D818F3F19F060E091
:100640000E94C1018F85612F84FF06C0CE01DF911A
:10065000CF911F910C94E20270E084E0759567954C
:100660008A95E1F7CE010E94B102612FCE01DF91A0
:10067000CF911F910C94B10241E00E94130381E0DD
:1006800090E0089540E00C941303FC016089262F4C
:100690002460208B6C600C944203CF93DF93CDB722
:1006A000DEB728970FB6F894DEBF0FBECDBF28E0A7
:1006B000E4E0F1E0DE01119601900D922A95E1F758
:1006C000FC012389421710F0422F4150E1E0F0E095
:1006D000EC0FFD1F22E0429FE00DF11D112420814F
:1006E000260F2068622F28960FB6F894DEBF0FBE43
:1006F000CDBFDF91CF910C94420361E00E94420391
:1007000080ED97E00C94A804CF93DF93EC01423086
:1007100018F08F8588608F874B8B1C8A222329F0E5
:10072000413019F48F8584608F8780E593EC0E94B7
:10073000A80460E08C810E94C10160E08E810E946B
:10074000C1018D818F3F19F060E00E94C1016F856A
:1007500064FD1DC063E0CE010E94B10284E991E115
:100760000E94A80463E0CE010E94B10284E991E1F5
:100770000E94A80463E0CE010E94B10286E990E0E5
:100780000E94A80462E0CE010E94B10216C060621D
:10079000CE010E94420384E991E10E94A8046F8582
:1007A0006062CE010E94420386E990E00E94A804A4
:1007B0006F856062CE010E9442036F856062CE0148
:1007C0000E94420384E0888BCE010E944503CE0143
:1007D0000E947D0382E0898B66E0CE01DF91CF919C
:1007E0000C9442036F927F928F92AF92CF92EF92CE
:1007F0000F931F93CF93DF93CDB7DEB73C01162F36
:10080000842F5D854E853F859889F30184832583F8
:100810000683E782C086A186828653874487358710
:10082000968761E00E948901F30185818F3F19F06D
:1008300061E00E94890161E0F30186810E948901E3
:10084000112319F0F301178603C080E1F3018787B4
:1008500020E041E060E1C301DF91CF911F910F9152
:10086000EF90CF90AF908F907F906F900C94840317
:100870008F92AF92CF92EF920F93DC0113961C925E
:100880001E921297E5E9F1E0ED93FC931F921F92FF
:100890001F921F928C2CAE2CC02EE22E042F2FEF15
:1008A000462F61E00E94F2030F900F900F900F907F
:1008B0000F91EF90CF90AF908F9008951F920F926D
:1008C0000FB60F9211242F933F938F939F93AF9363
:1008D000BF938091BB019091BC01A091BD01B091EB
:1008E000BE013091C301232F2D5F2D3720F40196D7
:1008F000A11DB11D05C0232F2A570296A11DB11DB0
:100900002093C3018093BB019093BC01A093BD01D0
:10091000B093BE018091BF019091C001A091C1012F
:10092000B091C2010196A11DB11D8093BF019093AA
:10093000C001A093C101B093C201BF91AF919F913B
:100940008F913F912F910F900FBE0F901F90189590
:10095000019739F0880F991F880F991F0297019707
:10096000F1F70895789484B5826084BD84B5816080
:1009700084BD85B5826085BD85B5816085BDEEE6A7
:10098000F0E0808181608083E1E8F0E01082808186
:1009900082608083808181608083E0E8F0E08081F4
:1009A00081608083E1EBF0E0808184608083E0EB14
:1009B000F0E0808181608083EAE7F0E080818460FC
:1009C0008083808182608083808181608083808158
:1009D000806880831092C10008958F929F92AF9299
:1009E000BF92CF92DF92EF92FF92CF93DF93EC0111
:1009F000688179818A819B816115710581059105E5
:100A000021F464E279ED8BE597E02DE133EF41E0ED
:100A100050E00E94830549015A019B01AC01A7EAFD
:100A2000B1E40E944E056B017C01ACEEB4EFA50170
:100A300094010E945C05C60ED71EE81EF91EF7FE43
:100A400006C081E0C81AD108E10880E8F80AC88227
:100A5000D982EA82FB82E894F7F8B601C701DF91F8
:100A6000CF91FF90EF90DF90CF90BF90AF909F908D
:100A70008F9008950E94ED04089580E091E00E9417
:100A8000ED040895609300017093010180930201C9
:100A9000909303010895F8940C94B1050E949F056A
:100AA000A59F900DB49F900DA49F800D911D1124C2
:100AB0000895B7FF0C944E050E944E05821B930BC0
:100AC0000895A1E21A2EAA1BBB1BFD010DC0AA1F8F
:100AD000BB1FEE1FFF1FA217B307E407F50720F0A7
:100AE000A21BB30BE40BF50B661F771F881F991F22
:100AF0001A9469F760957095809590959B01AC016B
:100B0000BD01CF010895052E97FB16F4009407D080
:100B100057FD0DD00E94610507FC09D07EF4909529
:100B20008095709561957F4F8F4F9F4F0895509599
:100B30004095309521953F4F4F4F5F4F0895A29FAD
:100B4000B001B39FC001A39F01D0B29F700D811D62
:100B50001124911D0895EE0FFF1F0590F491E02DD3
:060B60000994F894FFCF98
:100B6600010000000000400014005400436869655D
:100B7600646920616C6C610050616C6C6120646911
:100B8600204372697374616C6C6F004C6120506114
:100B96006C6C6120646963653A005369004D6F6C43
:100BA600746F2070726F626162696C6D656E7465D8
:100BB6000043657274616D656D74650053656D62A1
:100BC600726120646920736900496E736963757286
:100BD6006F00446F6D616E646120616E636F726158
:100BE600004D6F6C746F2064756262696F004E4FC2
:0A0BF60000000000003C032E020086
:00000001FF
